{
  "contractName": "ElectionManagement",
  "abi": [
    {
      "anonymous": false,
      "inputs": [
        {
          "indexed": false,
          "internalType": "uint256",
          "name": "Total",
          "type": "uint256"
        }
      ],
      "name": "EventAvailableBalance",
      "type": "event"
    },
    {
      "anonymous": false,
      "inputs": [
        {
          "indexed": false,
          "internalType": "string",
          "name": "election_name",
          "type": "string"
        },
        {
          "indexed": false,
          "internalType": "string",
          "name": "party_name",
          "type": "string"
        },
        {
          "indexed": false,
          "internalType": "string",
          "name": "candidate_name",
          "type": "string"
        },
        {
          "indexed": false,
          "internalType": "string",
          "name": "candidate_post",
          "type": "string"
        },
        {
          "indexed": false,
          "internalType": "uint256",
          "name": "candidate_number",
          "type": "uint256"
        }
      ],
      "name": "EventCreateCandidate",
      "type": "event"
    },
    {
      "anonymous": false,
      "inputs": [
        {
          "indexed": false,
          "internalType": "string",
          "name": "election_name",
          "type": "string"
        },
        {
          "indexed": false,
          "internalType": "uint256",
          "name": "election_id",
          "type": "uint256"
        }
      ],
      "name": "EventCreateElection",
      "type": "event"
    },
    {
      "anonymous": false,
      "inputs": [
        {
          "indexed": false,
          "internalType": "string",
          "name": "election_name",
          "type": "string"
        },
        {
          "indexed": false,
          "internalType": "string",
          "name": "party_name",
          "type": "string"
        },
        {
          "indexed": false,
          "internalType": "uint256",
          "name": "party_id",
          "type": "uint256"
        }
      ],
      "name": "EventCreateparty",
      "type": "event"
    },
    {
      "anonymous": false,
      "inputs": [
        {
          "indexed": false,
          "internalType": "string",
          "name": "election_name",
          "type": "string"
        },
        {
          "indexed": false,
          "internalType": "bool",
          "name": "vote_status",
          "type": "bool"
        }
      ],
      "name": "EventVoted",
      "type": "event"
    },
    {
      "anonymous": false,
      "inputs": [
        {
          "indexed": true,
          "internalType": "address",
          "name": "previousOwner",
          "type": "address"
        },
        {
          "indexed": true,
          "internalType": "address",
          "name": "newOwner",
          "type": "address"
        }
      ],
      "name": "OwnershipTransferred",
      "type": "event"
    },
    {
      "anonymous": false,
      "inputs": [
        {
          "indexed": false,
          "internalType": "string",
          "name": "_name",
          "type": "string"
        },
        {
          "indexed": false,
          "internalType": "uint256",
          "name": "_v_no",
          "type": "uint256"
        },
        {
          "indexed": false,
          "internalType": "bool",
          "name": "_is_voted",
          "type": "bool"
        },
        {
          "indexed": false,
          "internalType": "string",
          "name": "_r_date",
          "type": "string"
        },
        {
          "indexed": false,
          "internalType": "uint256",
          "name": "_c_num",
          "type": "uint256"
        }
      ],
      "name": "VoterUpdate",
      "type": "event"
    },
    {
      "inputs": [
        {
          "internalType": "string",
          "name": "_name",
          "type": "string"
        },
        {
          "internalType": "string",
          "name": "_r_date",
          "type": "string"
        },
        {
          "internalType": "uint256",
          "name": "_c_num",
          "type": "uint256"
        },
        {
          "internalType": "uint256",
          "name": "_token",
          "type": "uint256"
        }
      ],
      "name": "addVoter",
      "outputs": [],
      "stateMutability": "nonpayable",
      "type": "function"
    },
    {
      "inputs": [],
      "name": "checkAvailabelBalance",
      "outputs": [],
      "stateMutability": "nonpayable",
      "type": "function"
    },
    {
      "inputs": [
        {
          "internalType": "address payable",
          "name": "_to",
          "type": "address"
        }
      ],
      "name": "destroySmartContract",
      "outputs": [],
      "stateMutability": "nonpayable",
      "type": "function"
    },
    {
      "inputs": [],
      "name": "owner",
      "outputs": [
        {
          "internalType": "address",
          "name": "",
          "type": "address"
        }
      ],
      "stateMutability": "view",
      "type": "function",
      "constant": true
    },
    {
      "inputs": [],
      "name": "renounceOwnership",
      "outputs": [],
      "stateMutability": "nonpayable",
      "type": "function"
    },
    {
      "inputs": [
        {
          "internalType": "address",
          "name": "newOwner",
          "type": "address"
        }
      ],
      "name": "transferOwnership",
      "outputs": [],
      "stateMutability": "nonpayable",
      "type": "function"
    },
    {
      "stateMutability": "payable",
      "type": "receive",
      "payable": true
    },
    {
      "inputs": [
        {
          "internalType": "string",
          "name": "_e_name",
          "type": "string"
        }
      ],
      "name": "registerElection",
      "outputs": [],
      "stateMutability": "nonpayable",
      "type": "function"
    },
    {
      "inputs": [
        {
          "internalType": "string",
          "name": "e_name",
          "type": "string"
        },
        {
          "internalType": "string",
          "name": "p_name",
          "type": "string"
        }
      ],
      "name": "registerParty",
      "outputs": [],
      "stateMutability": "nonpayable",
      "type": "function"
    },
    {
      "inputs": [
        {
          "internalType": "string",
          "name": "e_name",
          "type": "string"
        },
        {
          "internalType": "string",
          "name": "p_name",
          "type": "string"
        },
        {
          "internalType": "string",
          "name": "_c_name",
          "type": "string"
        },
        {
          "internalType": "string",
          "name": "_c_post",
          "type": "string"
        }
      ],
      "name": "registerCandidate",
      "outputs": [],
      "stateMutability": "nonpayable",
      "type": "function"
    },
    {
      "inputs": [
        {
          "internalType": "string",
          "name": "_e_name",
          "type": "string"
        },
        {
          "internalType": "uint256[]",
          "name": "pid",
          "type": "uint256[]"
        },
        {
          "internalType": "uint256[]",
          "name": "cid",
          "type": "uint256[]"
        },
        {
          "internalType": "uint256",
          "name": "_token",
          "type": "uint256"
        }
      ],
      "name": "vote",
      "outputs": [],
      "stateMutability": "nonpayable",
      "type": "function"
    },
    {
      "inputs": [
        {
          "internalType": "string",
          "name": "_e_name",
          "type": "string"
        }
      ],
      "name": "getVotes",
      "outputs": [
        {
          "internalType": "string",
          "name": "",
          "type": "string"
        }
      ],
      "stateMutability": "nonpayable",
      "type": "function"
    }
  ],
  "bytecode": "0x6080604052600180556000600355600060045560006005553480156200002457600080fd5b5062000045620000396200004b60201b60201c565b6200005360201b60201c565b62000117565b600033905090565b60008060009054906101000a900473ffffffffffffffffffffffffffffffffffffffff169050816000806101000a81548173ffffffffffffffffffffffffffffffffffffffff021916908373ffffffffffffffffffffffffffffffffffffffff1602179055508173ffffffffffffffffffffffffffffffffffffffff168173ffffffffffffffffffffffffffffffffffffffff167f8be0079c531659141344cd1fd0a4f28419497f9722a3daafe3b4186f6b6457e060405160405180910390a35050565b61352780620001276000396000f3fe6080604052600436106100a05760003560e01c80637aff6f91116100645780637aff6f9114610155578063805265e51461017e5780638da5cb5b146101bb578063ed51fe9b146101e6578063f2fde38b1461020f578063f5387de014610238576100a7565b80631666794b146100ac57806334c2dbe0146100d557806339df43ff146100ec5780635aba642614610115578063715018a61461013e576100a7565b366100a757005b600080fd5b3480156100b857600080fd5b506100d360048036038101906100ce9190611d8b565b610261565b005b3480156100e157600080fd5b506100ea6104be565b005b3480156100f857600080fd5b50610113600480360381019061010e9190611e88565b6104ff565b005b34801561012157600080fd5b5061013c60048036038101906101379190611eb5565b610520565b005b34801561014a57600080fd5b5061015361072a565b005b34801561016157600080fd5b5061017c60048036038101906101779190611f2d565b61073e565b005b34801561018a57600080fd5b506101a560048036038101906101a09190612004565b610a1a565b6040516101b291906120d5565b60405180910390f35b3480156101c757600080fd5b506101d0610d1c565b6040516101dd9190612118565b60405180910390f35b3480156101f257600080fd5b5061020d60048036038101906102089190612004565b610d45565b005b34801561021b57600080fd5b506102366004803603810190610231919061215f565b610ea0565b005b34801561024457600080fd5b5061025f600480360381019061025a9190612254565b610f23565b005b610269611518565b6000600260008381526020019081526020016000206003015411156102c3576040517f08c379a00000000000000000000000000000000000000000000000000000000081526004016102ba9061235b565b60405180910390fd5b60006002600083815260200190815260200160002060050154111561031d576040517f08c379a0000000000000000000000000000000000000000000000000000000008152600401610314906123ed565b60405180910390fd5b836002600083815260200190815260200160002060000190816103409190612619565b50600154600260008381526020019081526020016000206001018190555060006002600083815260200190815260200160002060020160006101000a81548160ff021916908315150217905550806002600083815260200190815260200160002060030181905550826002600083815260200190815260200160002060040190816103cb9190612619565b5081600260008381526020019081526020016000206005018190555060018060008282546103f9919061271a565b925050819055507f9be1be5db3c313780716bbfa451ca1937258a5c2d821bc8b8bd3920d85c3d0766002600083815260200190815260200160002060000160026000848152602001908152602001600020600101546002600085815260200190815260200160002060020160009054906101000a900460ff166002600086815260200190815260200160002060040160026000878152602001908152602001600020600501546040516104b095949392919061281e565b60405180910390a150505050565b6104c6611518565b7f8b4f1ec7ae7b3bee79d9c74b6b6674b17f382a4adacf502db0833b3424305bcf476040516104f5919061287f565b60405180910390a1565b610507611518565b8073ffffffffffffffffffffffffffffffffffffffff16ff5b610528611518565b600061053383611596565b905061053f818361166c565b1561057f576040517f08c379a0000000000000000000000000000000000000000000000000000000008152600401610576906128e6565b60405180910390fd5b816006600083815260200190815260200160002060050160006006600085815260200190815260200160002060040154815260200190815260200160002060000190816105cc9190612619565b50600060066000838152602001908152602001600020600501600060066000858152602001908152602001600020600401548152602001908152602001600020600301819055506000600660008381526020019081526020016000206005016000600660008581526020019081526020016000206004015481526020019081526020016000206001018190555060045460066000838152602001908152602001600020600501600060066000858152602001908152602001600020600401548152602001908152602001600020600201819055507f8096b05adde2d552c169085b2e62f46b266f65b7c037797bc74e527deb9889ef83836004546040516106d593929190612906565b60405180910390a16001600660008381526020019081526020016000206004016000828254610704919061271a565b9250508190555060016004600082825461071e919061271a565b92505081905550505050565b610732611518565b61073c6000611736565b565b610746611518565b600061075185611596565b9050600061075f82866117fa565b905061076c8282856118f9565b156107ac576040517f08c379a00000000000000000000000000000000000000000000000000000000081526004016107a3906129bd565b60405180910390fd5b83600660008481526020019081526020016000206005016000838152602001908152602001600020600401600060066000868152602001908152602001600020600501600085815260200190815260200160002060030154815260200190815260200160002060000190816108219190612619565b5082600660008481526020019081526020016000206005016000838152602001908152602001600020600401600060066000868152602001908152602001600020600501600085815260200190815260200160002060030154815260200190815260200160002060010190816108979190612619565b506000600660008481526020019081526020016000206005016000838152602001908152602001600020600401600060066000868152602001908152602001600020600501600085815260200190815260200160002060030154815260200190815260200160002060030181905550600354600660008481526020019081526020016000206005016000838152602001908152602001600020600401600060066000868152602001908152602001600020600501600085815260200190815260200160002060030154815260200190815260200160002060020181905550600160066000848152602001908152602001600020600501600083815260200190815260200160002060030160008282546109b0919061271a565b925050819055507f1337bc532f6328c0715db9e2c8426f545dd130002cd0acbe23730be38b8ae74e868686866003546040516109f09594939291906129dd565b60405180910390a1600160036000828254610a0b919061271a565b92505081905550505050505050565b6060610a24611518565b6000610a2f83611596565b905060606040518060400160405280600181526020017f5b00000000000000000000000000000000000000000000000000000000000000815250905060005b6006600084815260200190815260200160002060040154811015610cef5781600660008581526020019081526020016000206005016000838152602001908152602001600020600001610aea600660008781526020019081526020016000206005016000858152602001908152602001600020600101546119ec565b610b1d600660008881526020019081526020016000206005016000868152602001908152602001600020600201546119ec565b604051602001610b309493929190612c87565b604051602081830303815290604052915060005b60066000858152602001908152602001600020600501600083815260200190815260200160002060030154811015610cb9578260066000868152602001908152602001600020600501600084815260200190815260200160002060040160008381526020019081526020016000206000016006600087815260200190815260200160002060050160008581526020019081526020016000206004016000848152602001908152602001600020600101610c3a6006600089815260200190815260200160002060050160008781526020019081526020016000206004016000868152602001908152602001600020600201546119ec565b610c81600660008a815260200190815260200160002060050160008881526020019081526020016000206004016000878152602001908152602001600020600301546119ec565b604051602001610c95959493929190612e83565b60405160208183030381529060405292508080610cb190612f3c565b915050610b44565b5081604051602001610ccb9190612fd0565b60405160208183030381529060405291508080610ce790612f3c565b915050610a6e565b5080604051602001610d01919061303e565b60405160208183030381529060405290508092505050919050565b60008060009054906101000a900473ffffffffffffffffffffffffffffffffffffffff16905090565b610d4d611518565b610d5681611b52565b15610d96576040517f08c379a0000000000000000000000000000000000000000000000000000000008152600401610d8d906130ac565b60405180910390fd5b806006600060055481526020019081526020016000206000019081610dbb9190612619565b50600060066000600554815260200190815260200160002060020160006101000a81548160ff021916908315150217905550600060066000600554815260200190815260200160002060010181905550600554600660006005548152602001908152602001600020600301819055506000600660006005548152602001908152602001600020600401819055507fd3fb4534a2d4e76ab170169efb4aecc8d01702a9272b953a406af53f33f08f6181600554604051610e7b9291906130cc565b60405180910390a1600160056000828254610e96919061271a565b9250508190555050565b610ea8611518565b600073ffffffffffffffffffffffffffffffffffffffff168173ffffffffffffffffffffffffffffffffffffffff1603610f17576040517f08c379a0000000000000000000000000000000000000000000000000000000008152600401610f0e9061316e565b60405180910390fd5b610f2081611736565b50565b6000600260008381526020019081526020016000206003015411610f7c576040517f08c379a0000000000000000000000000000000000000000000000000000000008152600401610f73906131da565b60405180910390fd5b6002600082815260200190815260200160002060020160009054906101000a900460ff1615610fe0576040517f08c379a0000000000000000000000000000000000000000000000000000000008152600401610fd790613246565b60405180910390fd5b6000610feb85611596565b905060016006600083815260200190815260200160002060050160008660008151811061101b5761101a613266565b5b6020026020010151815260200190815260200160002060040160008560008151811061104a57611049613266565b5b602002602001015181526020019081526020016000206003016000828254611072919061271a565b925050819055506001600660008381526020019081526020016000206005016000866000815181106110a7576110a6613266565b5b6020026020010151815260200190815260200160002060010160008282546110cf919061271a565b9250508190555060016006600083815260200190815260200160002060050160008660018151811061110457611103613266565b5b6020026020010151815260200190815260200160002060040160008560018151811061113357611132613266565b5b60200260200101518152602001908152602001600020600301600082825461115b919061271a565b925050819055506001600660008381526020019081526020016000206005016000866001815181106111905761118f613266565b5b6020026020010151815260200190815260200160002060010160008282546111b8919061271a565b925050819055506001600660008381526020019081526020016000206005016000866002815181106111ed576111ec613266565b5b6020026020010151815260200190815260200160002060040160008560028151811061121c5761121b613266565b5b602002602001015181526020019081526020016000206003016000828254611244919061271a565b9250508190555060016006600083815260200190815260200160002060050160008660028151811061127957611278613266565b5b6020026020010151815260200190815260200160002060010160008282546112a1919061271a565b925050819055506001600660008381526020019081526020016000206005016000866003815181106112d6576112d5613266565b5b6020026020010151815260200190815260200160002060040160008560038151811061130557611304613266565b5b60200260200101518152602001908152602001600020600301600082825461132d919061271a565b9250508190555060016006600083815260200190815260200160002060050160008660038151811061136257611361613266565b5b60200260200101518152602001908152602001600020600101600082825461138a919061271a565b925050819055506001600660008381526020019081526020016000206005016000866004815181106113bf576113be613266565b5b602002602001015181526020019081526020016000206004016000856004815181106113ee576113ed613266565b5b602002602001015181526020019081526020016000206003016000828254611416919061271a565b9250508190555060016006600083815260200190815260200160002060050160008660048151811061144b5761144a613266565b5b602002602001015181526020019081526020016000206001016000828254611473919061271a565b9250508190555060056006600083815260200190815260200160002060010160008282546114a1919061271a565b9250508190555060016002600084815260200190815260200160002060020160006101000a81548160ff0219169083151502179055507f6fd9dbc24ba16150f10d1e72bae7daf7ec569fa68e6c9980fd07bdc19c747cc0856001604051611509929190613295565b60405180910390a15050505050565b611520611bf3565b73ffffffffffffffffffffffffffffffffffffffff1661153e610d1c565b73ffffffffffffffffffffffffffffffffffffffff1614611594576040517f08c379a000000000000000000000000000000000000000000000000000000000815260040161158b90613311565b60405180910390fd5b565b600080600090505b600554811161162b57826040516020016115b89190613331565b60405160208183030381529060405280519060200120600660008381526020019081526020016000206000016040516020016115f49190613348565b60405160208183030381529060405280519060200120036116185780915050611667565b808061162390612f3c565b91505061159e565b506040517f08c379a000000000000000000000000000000000000000000000000000000000815260040161165e906133ab565b60405180910390fd5b919050565b600080600090505b6006600085815260200190815260200160002060040154811161172a57826040516020016116a29190613331565b604051602081830303815290604052805190602001206006600086815260200190815260200160002060050160008381526020019081526020016000206000016040516020016116f29190613348565b6040516020818303038152906040528051906020012003611717576001915050611730565b808061172290612f3c565b915050611674565b50600090505b92915050565b60008060009054906101000a900473ffffffffffffffffffffffffffffffffffffffff169050816000806101000a81548173ffffffffffffffffffffffffffffffffffffffff021916908373ffffffffffffffffffffffffffffffffffffffff1602179055508173ffffffffffffffffffffffffffffffffffffffff168173ffffffffffffffffffffffffffffffffffffffff167f8be0079c531659141344cd1fd0a4f28419497f9722a3daafe3b4186f6b6457e060405160405180910390a35050565b600080600090505b600660008581526020019081526020016000206004015481116118b757826040516020016118309190613331565b604051602081830303815290604052805190602001206006600086815260200190815260200160002060050160008381526020019081526020016000206000016040516020016118809190613348565b60405160208183030381529060405280519060200120036118a457809150506118f3565b80806118af90612f3c565b915050611802565b506040517f08c379a00000000000000000000000000000000000000000000000000000000081526004016118ea90613417565b60405180910390fd5b92915050565b600080600090505b6006600086815260200190815260200160002060050160008581526020019081526020016000206003015481116119df57826040516020016119439190613331565b6040516020818303038152906040528051906020012060066000878152602001908152602001600020600501600086815260200190815260200160002060040160008381526020019081526020016000206001016040516020016119a79190613348565b60405160208183030381529060405280519060200120036119cc5760019150506119e5565b80806119d790612f3c565b915050611901565b50600090505b9392505050565b606060008203611a33576040518060400160405280600181526020017f30000000000000000000000000000000000000000000000000000000000000008152509050611b4d565b600082905060005b60008214611a65578080611a4e90612f3c565b915050600a82611a5e9190613466565b9150611a3b565b60008167ffffffffffffffff811115611a8157611a80611c2a565b5b6040519080825280601f01601f191660200182016040528015611ab35781602001600182028036833780820191505090505b50905060008290508593505b60008414611b4557600a84611ad49190613497565b6030611ae0919061271a565b60f81b8282611aee906134c8565b92508281518110611b0257611b01613266565b5b60200101907effffffffffffffffffffffffffffffffffffffffffffffffffffffffffffff1916908160001a905350600a84611b3e9190613466565b9350611abf565b819450505050505b919050565b600080600090505b6005548111611be85782604051602001611b749190613331565b6040516020818303038152906040528051906020012060066000838152602001908152602001600020600001604051602001611bb09190613348565b6040516020818303038152906040528051906020012003611bd5576001915050611bee565b8080611be090612f3c565b915050611b5a565b50600090505b919050565b600033905090565b6000604051905090565b600080fd5b600080fd5b600080fd5b600080fd5b6000601f19601f8301169050919050565b7f4e487b7100000000000000000000000000000000000000000000000000000000600052604160045260246000fd5b611c6282611c19565b810181811067ffffffffffffffff82111715611c8157611c80611c2a565b5b80604052505050565b6000611c94611bfb565b9050611ca08282611c59565b919050565b600067ffffffffffffffff821115611cc057611cbf611c2a565b5b611cc982611c19565b9050602081019050919050565b82818337600083830152505050565b6000611cf8611cf384611ca5565b611c8a565b905082815260208101848484011115611d1457611d13611c14565b5b611d1f848285611cd6565b509392505050565b600082601f830112611d3c57611d3b611c0f565b5b8135611d4c848260208601611ce5565b91505092915050565b6000819050919050565b611d6881611d55565b8114611d7357600080fd5b50565b600081359050611d8581611d5f565b92915050565b60008060008060808587031215611da557611da4611c05565b5b600085013567ffffffffffffffff811115611dc357611dc2611c0a565b5b611dcf87828801611d27565b945050602085013567ffffffffffffffff811115611df057611def611c0a565b5b611dfc87828801611d27565b9350506040611e0d87828801611d76565b9250506060611e1e87828801611d76565b91505092959194509250565b600073ffffffffffffffffffffffffffffffffffffffff82169050919050565b6000611e5582611e2a565b9050919050565b611e6581611e4a565b8114611e7057600080fd5b50565b600081359050611e8281611e5c565b92915050565b600060208284031215611e9e57611e9d611c05565b5b6000611eac84828501611e73565b91505092915050565b60008060408385031215611ecc57611ecb611c05565b5b600083013567ffffffffffffffff811115611eea57611ee9611c0a565b5b611ef685828601611d27565b925050602083013567ffffffffffffffff811115611f1757611f16611c0a565b5b611f2385828601611d27565b9150509250929050565b60008060008060808587031215611f4757611f46611c05565b5b600085013567ffffffffffffffff811115611f6557611f64611c0a565b5b611f7187828801611d27565b945050602085013567ffffffffffffffff811115611f9257611f91611c0a565b5b611f9e87828801611d27565b935050604085013567ffffffffffffffff811115611fbf57611fbe611c0a565b5b611fcb87828801611d27565b925050606085013567ffffffffffffffff811115611fec57611feb611c0a565b5b611ff887828801611d27565b91505092959194509250565b60006020828403121561201a57612019611c05565b5b600082013567ffffffffffffffff81111561203857612037611c0a565b5b61204484828501611d27565b91505092915050565b600081519050919050565b600082825260208201905092915050565b60005b8381101561208757808201518184015260208101905061206c565b83811115612096576000848401525b50505050565b60006120a78261204d565b6120b18185612058565b93506120c1818560208601612069565b6120ca81611c19565b840191505092915050565b600060208201905081810360008301526120ef818461209c565b905092915050565b600061210282611e2a565b9050919050565b612112816120f7565b82525050565b600060208201905061212d6000830184612109565b92915050565b61213c816120f7565b811461214757600080fd5b50565b60008135905061215981612133565b92915050565b60006020828403121561217557612174611c05565b5b60006121838482850161214a565b91505092915050565b600067ffffffffffffffff8211156121a7576121a6611c2a565b5b602082029050602081019050919050565b600080fd5b60006121d06121cb8461218c565b611c8a565b905080838252602082019050602084028301858111156121f3576121f26121b8565b5b835b8181101561221c57806122088882611d76565b8452602084019350506020810190506121f5565b5050509392505050565b600082601f83011261223b5761223a611c0f565b5b813561224b8482602086016121bd565b91505092915050565b6000806000806080858703121561226e5761226d611c05565b5b600085013567ffffffffffffffff81111561228c5761228b611c0a565b5b61229887828801611d27565b945050602085013567ffffffffffffffff8111156122b9576122b8611c0a565b5b6122c587828801612226565b935050604085013567ffffffffffffffff8111156122e6576122e5611c0a565b5b6122f287828801612226565b925050606061230387828801611d76565b91505092959194509250565b7f766f74657220746f6b656e20616c726561647920657869737400000000000000600082015250565b6000612345601983612058565b91506123508261230f565b602082019050919050565b6000602082019050818103600083015261237481612338565b9050919050565b7f766f746572207769746820746869732063617264206e756d62657220616c726560008201527f6164792065786973740000000000000000000000000000000000000000000000602082015250565b60006123d7602983612058565b91506123e28261237b565b604082019050919050565b60006020820190508181036000830152612406816123ca565b9050919050565b7f4e487b7100000000000000000000000000000000000000000000000000000000600052602260045260246000fd5b6000600282049050600182168061245457607f821691505b6020821081036124675761246661240d565b5b50919050565b60008190508160005260206000209050919050565b60006020601f8301049050919050565b600082821b905092915050565b6000600883026124cf7fffffffffffffffffffffffffffffffffffffffffffffffffffffffffffffffff82612492565b6124d98683612492565b95508019841693508086168417925050509392505050565b6000819050919050565b600061251661251161250c84611d55565b6124f1565b611d55565b9050919050565b6000819050919050565b612530836124fb565b61254461253c8261251d565b84845461249f565b825550505050565b600090565b61255961254c565b612564818484612527565b505050565b5b818110156125885761257d600082612551565b60018101905061256a565b5050565b601f8211156125cd5761259e8161246d565b6125a784612482565b810160208510156125b6578190505b6125ca6125c285612482565b830182612569565b50505b505050565b600082821c905092915050565b60006125f0600019846008026125d2565b1980831691505092915050565b600061260983836125df565b9150826002028217905092915050565b6126228261204d565b67ffffffffffffffff81111561263b5761263a611c2a565b5b612645825461243c565b61265082828561258c565b600060209050601f8311600181146126835760008415612671578287015190505b61267b85826125fd565b8655506126e3565b601f1984166126918661246d565b60005b828110156126b957848901518255600182019150602085019450602081019050612694565b868310156126d657848901516126d2601f8916826125df565b8355505b6001600288020188555050505b505050505050565b7f4e487b7100000000000000000000000000000000000000000000000000000000600052601160045260246000fd5b600061272582611d55565b915061273083611d55565b9250827fffffffffffffffffffffffffffffffffffffffffffffffffffffffffffffffff03821115612765576127646126eb565b5b828201905092915050565b6000815461277d8161243c565b6127878186612058565b945060018216600081146127a257600181146127b8576127eb565b60ff1983168652811515602002860193506127eb565b6127c18561246d565b60005b838110156127e3578154818901526001820191506020810190506127c4565b808801955050505b50505092915050565b6127fd81611d55565b82525050565b60008115159050919050565b61281881612803565b82525050565b600060a08201905081810360008301526128388188612770565b905061284760208301876127f4565b612854604083018661280f565b81810360608301526128668185612770565b905061287560808301846127f4565b9695505050505050565b600060208201905061289460008301846127f4565b92915050565b7f7061727479206e616d6520616c72656164792065786973740000000000000000600082015250565b60006128d0601883612058565b91506128db8261289a565b602082019050919050565b600060208201905081810360008301526128ff816128c3565b9050919050565b60006060820190508181036000830152612920818661209c565b90508181036020830152612934818561209c565b905061294360408301846127f4565b949350505050565b7f63616e64696461746520706f737420696e2074686174207061727479206e616d60008201527f6520616c72656164792065786973740000000000000000000000000000000000602082015250565b60006129a7602f83612058565b91506129b28261294b565b604082019050919050565b600060208201905081810360008301526129d68161299a565b9050919050565b600060a08201905081810360008301526129f7818861209c565b90508181036020830152612a0b818761209c565b90508181036040830152612a1f818661209c565b90508181036060830152612a33818561209c565b9050612a4260808301846127f4565b9695505050505050565b600081905092915050565b6000612a628261204d565b612a6c8185612a4c565b9350612a7c818560208601612069565b80840191505092915050565b7f7b6e616d653a0000000000000000000000000000000000000000000000000000600082015250565b6000612abe600683612a4c565b9150612ac982612a88565b600682019050919050565b7f2700000000000000000000000000000000000000000000000000000000000000600082015250565b6000612b0a600183612a4c565b9150612b1582612ad4565b600182019050919050565b60008154612b2d8161243c565b612b378186612a4c565b94506001821660008114612b525760018114612b6757612b9a565b60ff1983168652811515820286019350612b9a565b612b708561246d565b60005b83811015612b9257815481890152600182019150602081019050612b73565b838801955050505b50505092915050565b7f2c766f7465733a00000000000000000000000000000000000000000000000000600082015250565b6000612bd9600783612a4c565b9150612be482612ba3565b600782019050919050565b7f2c706172747949643a0000000000000000000000000000000000000000000000600082015250565b6000612c25600983612a4c565b9150612c3082612bef565b600982019050919050565b7f2c72657475726e56616c7565733a5b0000000000000000000000000000000000600082015250565b6000612c71600f83612a4c565b9150612c7c82612c3b565b600f82019050919050565b6000612c938287612a57565b9150612c9e82612ab1565b9150612ca982612afd565b9150612cb58286612b20565b9150612cc082612afd565b9150612ccb82612bcc565b9150612cd78285612a57565b9150612ce282612c18565b9150612cee8284612a57565b9150612cf982612c64565b915081905095945050505050565b7f7b00000000000000000000000000000000000000000000000000000000000000600082015250565b6000612d3d600183612a4c565b9150612d4882612d07565b600182019050919050565b7f6e616d653a000000000000000000000000000000000000000000000000000000600082015250565b6000612d89600583612a4c565b9150612d9482612d53565b600582019050919050565b7f2c706f73743a0000000000000000000000000000000000000000000000000000600082015250565b6000612dd5600683612a4c565b9150612de082612d9f565b600682019050919050565b7f2c635f69643a0000000000000000000000000000000000000000000000000000600082015250565b6000612e21600683612a4c565b9150612e2c82612deb565b600682019050919050565b7f7d2c000000000000000000000000000000000000000000000000000000000000600082015250565b6000612e6d600283612a4c565b9150612e7882612e37565b600282019050919050565b6000612e8f8288612a57565b9150612e9a82612d30565b9150612ea582612d7c565b9150612eb082612afd565b9150612ebc8287612b20565b9150612ec782612afd565b9150612ed282612dc8565b9150612edd82612afd565b9150612ee98286612b20565b9150612ef482612afd565b9150612eff82612e14565b9150612f0b8285612a57565b9150612f1682612bcc565b9150612f228284612a57565b9150612f2d82612e60565b91508190509695505050505050565b6000612f4782611d55565b91507fffffffffffffffffffffffffffffffffffffffffffffffffffffffffffffffff8203612f7957612f786126eb565b5b600182019050919050565b7f5d7d2c0000000000000000000000000000000000000000000000000000000000600082015250565b6000612fba600383612a4c565b9150612fc582612f84565b600382019050919050565b6000612fdc8284612a57565b9150612fe782612fad565b915081905092915050565b7f5d00000000000000000000000000000000000000000000000000000000000000600082015250565b6000613028600183612a4c565b915061303382612ff2565b600182019050919050565b600061304a8284612a57565b91506130558261301b565b915081905092915050565b7f656c656374696f6e206e616d6520616c72656164792065786973740000000000600082015250565b6000613096601b83612058565b91506130a182613060565b602082019050919050565b600060208201905081810360008301526130c581613089565b9050919050565b600060408201905081810360008301526130e6818561209c565b90506130f560208301846127f4565b9392505050565b7f4f776e61626c653a206e6577206f776e657220697320746865207a65726f206160008201527f6464726573730000000000000000000000000000000000000000000000000000602082015250565b6000613158602683612058565b9150613163826130fc565b604082019050919050565b600060208201905081810360008301526131878161314b565b9050919050565b7f766f746572206e6f742065786973740000000000000000000000000000000000600082015250565b60006131c4600f83612058565b91506131cf8261318e565b602082019050919050565b600060208201905081810360008301526131f3816131b7565b9050919050565b7f766f74657220616c726561647920766f74656400000000000000000000000000600082015250565b6000613230601383612058565b915061323b826131fa565b602082019050919050565b6000602082019050818103600083015261325f81613223565b9050919050565b7f4e487b7100000000000000000000000000000000000000000000000000000000600052603260045260246000fd5b600060408201905081810360008301526132af818561209c565b90506132be602083018461280f565b9392505050565b7f4f776e61626c653a2063616c6c6572206973206e6f7420746865206f776e6572600082015250565b60006132fb602083612058565b9150613306826132c5565b602082019050919050565b6000602082019050818103600083015261332a816132ee565b9050919050565b600061333d8284612a57565b915081905092915050565b60006133548284612b20565b915081905092915050565b7f656c656374696f6e206e616d65206e6f7420666f756e64000000000000000000600082015250565b6000613395601783612058565b91506133a08261335f565b602082019050919050565b600060208201905081810360008301526133c481613388565b9050919050565b7f7061727479206e616d65206e6f7420666f756e64000000000000000000000000600082015250565b6000613401601483612058565b915061340c826133cb565b602082019050919050565b60006020820190508181036000830152613430816133f4565b9050919050565b7f4e487b7100000000000000000000000000000000000000000000000000000000600052601260045260246000fd5b600061347182611d55565b915061347c83611d55565b92508261348c5761348b613437565b5b828204905092915050565b60006134a282611d55565b91506134ad83611d55565b9250826134bd576134bc613437565b5b828206905092915050565b60006134d382611d55565b9150600082036134e6576134e56126eb565b5b60018203905091905056fea2646970667358221220f1583651bc742fc73796e5fd9c535e6ca99564b07e9285edbd1030d79912693964736f6c634300080f0033",
  "immutableReferences": {},
  "source": "pragma solidity ^0.8.15;\nimport \"./Ownable.sol\";\n\ncontract VotersManagement is Ownable{\n    uint votercounter=1;\n    event VoterUpdate (string _name,uint _v_no,bool _is_voted,string _r_date,uint _c_num);\n        struct voter{\n        string v_name;\n        uint v_no;\n        bool is_voted;\n        uint token;\n        string reg_date;\n        uint card_num;\n    }\n    mapping(uint => voter)  voters; \n\n    function addVoter(string memory _name,string memory _r_date,uint _c_num, uint _token) public onlyOwner{\n        require((voters[_token].token) <= 0,\"voter token already exist\");\n        require((voters[_token].card_num) <= 0,\"voter with this card number already exist\");\n        voters[_token].v_name = _name;\n        voters[_token].v_no = votercounter;\n        voters[_token].is_voted = false;\n        voters[_token].token = _token;\n        voters[_token].reg_date = _r_date;\n        voters[_token].card_num = _c_num;\n        votercounter+=1;\n        emit VoterUpdate(voters[_token].v_name,voters[_token].v_no,voters[_token].is_voted,voters[_token].reg_date,voters[_token].card_num);\n    }\n\n    receive () external payable {         \n    }\n    event EventAvailableBalance(uint Total);\n    function checkAvailabelBalance() public onlyOwner {\n        emit EventAvailableBalance(address(this).balance);\n    }\n\n    function destroySmartContract(address payable _to) public onlyOwner{\n        selfdestruct(_to);\n        \n    } \n\n}\n\n\n\ncontract ElectionManagement is VotersManagement{\n\n    event EventCreateCandidate(string election_name,string party_name,string candidate_name,string candidate_post,uint candidate_number);\n    event EventCreateparty(string election_name,string party_name,uint party_id);\n    event EventCreateElection(string election_name,uint election_id);\n    event EventVoted(string election_name,bool vote_status);\n\nuint c_count=0;\n    struct candidate{\n        string c_name;\n        string c_post;\n        uint c_id;\n        uint c_votes;\n    }\n\nuint p_count=0;\n    struct party{\n        string p_name;\n        uint p_votes;\n        uint p_id;\n        uint candidatecount;\n        mapping(uint => candidate) candidates;\n    }\n\nuint e_count=0;\n    struct election{\n        string e_name;\n        uint t_votes;\n        bool isRunning;\n        uint e_id;\n        uint p_Count;\n        mapping(uint => party) parties;\n\n    }\n\nmapping (uint => election) elections;\n\n        function checkElectionExist(string memory _name) private view returns(bool){\n        for(uint i=0;i<=e_count;i++){\n            if(keccak256(abi.encodePacked((elections[i].e_name))) == keccak256(abi.encodePacked((_name)))){\n                return true;\n            }\n        }\n        return false;\n    }\n\n    function registerElection(string memory _e_name) public onlyOwner{\n        require(!checkElectionExist(_e_name),\"election name already exist\");\n        elections[e_count].e_name = _e_name;\n        elections[e_count].isRunning = false;\n        elections[e_count].t_votes = 0;\n        elections[e_count].e_id = e_count;\n        elections[e_count].p_Count = 0;\n        emit EventCreateElection(_e_name,e_count);\n        e_count += 1;\n    }\n\n    function indexOfElection(string memory _name) private view returns(uint){\n        for(uint i=0;i<=e_count;i++){\n            if(keccak256(abi.encodePacked((elections[i].e_name))) == keccak256(abi.encodePacked((_name)))){\n                return i;\n            }\n        }\n        revert('election name not found');\n    }\n\n    function checkPartyExist(uint pindex,string memory p_name) private view returns(bool){\n        for(uint i=0;i<=elections[pindex].p_Count;i++){\n            if(keccak256(abi.encodePacked((elections[pindex].parties[i].p_name))) == keccak256(abi.encodePacked((p_name)))){\n                return true;\n            }\n        }\n        return false;\n    }\n\n    function indexOfParty(uint eindex,string memory p_name) private view returns(uint){\n        for(uint i=0;i<=elections[eindex].p_Count;i++){\n            if(keccak256(abi.encodePacked((elections[eindex].parties[i].p_name))) == keccak256(abi.encodePacked((p_name)))){\n                return i;\n            }\n        }\n        revert('party name not found');\n    }\n\n\n    function registerParty(string memory e_name,string memory p_name) public onlyOwner{\n        uint index = indexOfElection(e_name);\n        require(!checkPartyExist(index,p_name),\"party name already exist\");\n        elections[index].parties[elections[index].p_Count].p_name = p_name;\n        elections[index].parties[elections[index].p_Count].candidatecount = 0;\n        elections[index].parties[elections[index].p_Count].p_votes = 0;\n        elections[index].parties[elections[index].p_Count].p_id = p_count;\n        emit EventCreateparty(e_name,p_name,p_count);\n        elections[index].p_Count += 1;\n        p_count += 1;\n    }\n\n    function checkCandidateExist(uint eindex,uint pindex,string memory _c_post) private view returns(bool){\n        for(uint i=0;i<=elections[eindex].parties[pindex].candidatecount;i++){\n            if(keccak256(abi.encodePacked((elections[eindex].parties[pindex].candidates[i].c_post))) == keccak256(abi.encodePacked((_c_post)))){\n                return true;\n            }\n        }\n        return false;\n    }\n\n    function indexOfCandidate(uint eindex,uint pindex,string memory _c_post) private view returns(uint){\n        for(uint i=0;i<=elections[eindex].parties[pindex].candidatecount;i++){\n            if(keccak256(abi.encodePacked((elections[eindex].parties[pindex].candidates[i].c_post))) == keccak256(abi.encodePacked((_c_post)))){\n                return i;\n            }\n        }\n        revert('candidate post not found');\n    }\n\n    function registerCandidate(string memory e_name,string memory p_name,string memory _c_name,string memory _c_post)public onlyOwner{\n        uint eindex = indexOfElection(e_name);\n        uint pindex = indexOfParty(eindex,p_name);\n        require(!checkCandidateExist(eindex,pindex,_c_post),\"candidate post in that party name already exist\");\n        elections[eindex].parties[pindex].candidates[elections[eindex].parties[pindex].candidatecount].c_name = _c_name;\n        elections[eindex].parties[pindex].candidates[elections[eindex].parties[pindex].candidatecount].c_post = _c_post;\n        elections[eindex].parties[pindex].candidates[elections[eindex].parties[pindex].candidatecount].c_votes = 0;\n        elections[eindex].parties[pindex].candidates[elections[eindex].parties[pindex].candidatecount].c_id = c_count;\n        elections[eindex].parties[pindex].candidatecount += 1;\n        emit EventCreateCandidate(e_name,p_name,_c_name,_c_post,c_count);\n        c_count += 1;\n\n    }\n\n    // function checkcandidateIndex(string memory e_name,string memory p_name,string memory _c_post) public view returns(uint){\n    //     uint eindex = indexOfElection(e_name);\n    //     return indexOfCandidate(eindex,indexOfParty(eindex,p_name),_c_post);\n    // }\n// president,vice-president,secretary,treasurer,member\n// uint p_pid,uint p_cid,uint vp_pid,uint vp_cid,uint s_pid,uint s_cid,uint t_pid,uint t_cid,uint m_pid,uint m_cid\n    // function vote(string memory _e_name,uint p_pid,uint p_cid,uint vp_pid,uint vp_cid,uint s_pid,uint s_cid,uint t_pid,uint t_cid,uint m_pid,uint m_cid, uint _token) public onlyOwner{ \n        function vote(string memory _e_name,uint[] memory pid,uint[] memory cid,uint _token) public{\n        require(voters[_token].token > 0,\"voter not exist\");\n        require(!(voters[_token].is_voted),\"voter already voted\");\n        uint eindex = indexOfElection(_e_name);\n        // for president\n        elections[eindex].parties[pid[0]].candidates[cid[0]].c_votes += 1;\n        elections[eindex].parties[pid[0]].p_votes +=1;\n        // for vice president\n        elections[eindex].parties[pid[1]].candidates[cid[1]].c_votes += 1;\n        elections[eindex].parties[pid[1]].p_votes +=1;\n        // for secretary\n        elections[eindex].parties[pid[2]].candidates[cid[2]].c_votes += 1;\n        elections[eindex].parties[pid[2]].p_votes +=1;\n        // for treasurer\n        elections[eindex].parties[pid[3]].candidates[cid[3]].c_votes += 1;\n        elections[eindex].parties[pid[3]].p_votes +=1;\n        // for member\n        elections[eindex].parties[pid[4]].candidates[cid[4]].c_votes += 1;\n        elections[eindex].parties[pid[4]].p_votes +=1;\n\n        elections[eindex].t_votes += 5;\n        voters[_token].is_voted = true;\n        emit EventVoted(_e_name,true);\n\n    }\n\n     function uint2str(uint256 _i) internal pure returns (string memory str)\n{\n    if (_i == 0){\n    return \"0\";\n  }\n  uint256 j = _i;\n  uint256 length;\n  while (j != 0)\n  {\n    length++;\n    j /= 10;\n  }\n  bytes memory bstr = new bytes(length);\n  uint256 k = length;\n  j = _i;\n  while (j != 0)\n  {\n    bstr[--k] = bytes1(uint8(48 + j % 10));\n    j /= 10;\n  }\n  str = string(bstr);\n}\n\n    function getVotes(string memory _e_name)public onlyOwner returns(string memory) {\n        uint eindex = indexOfElection(_e_name);\n        // uint pindex = indexOfParty(eindex,_p_name);\n        string memory lvotes;\n        // c_count=elections[eindex].parties[pindex].candidatecount;\n        lvotes = '[';\n        for (uint j=0;j<elections[eindex].p_Count;j++){\n            lvotes = string(abi.encodePacked(lvotes,\"{name:\",\"'\",elections[eindex].parties[j].p_name,\"'\",\",votes:\",uint2str(elections[eindex].parties[j].p_votes),\",partyId:\",uint2str(elections[eindex].parties[j].p_id),\",returnValues:[\"));\n        for(uint i=0;i<elections[eindex].parties[j].candidatecount;i++){\n            lvotes=string(abi.encodePacked(lvotes,\"{\",\"name:\",\"'\",elections[eindex].parties[j].candidates[i].c_name,\"'\",\",post:\",\"'\",elections[eindex].parties[j].candidates[i].c_post,\"'\",\",c_id:\",uint2str(elections[eindex].parties[j].candidates[i].c_id),\",votes:\",uint2str(elections[eindex].parties[j].candidates[i].c_votes),\"},\"));\n        }\n        lvotes = string(abi.encodePacked(lvotes,\"]},\"));\n        }\n        lvotes = string(abi.encodePacked(lvotes,\"]\"));\n    //     return lvotes;\n    // }\n\n    return lvotes;\n    }\n}",
  "sourcePath": "/home/anish/Documents/experiments/react/DecentralizedVotingSystem/web3frontend/truffle/contracts/ElectionManagement.sol",
  "compiler": {
    "name": "solc",
    "version": "0.8.15+commit.e14f2714.Emscripten.clang"
  },
  "schemaVersion": "3.4.10",
  "updatedAt": "2022-10-19T16:46:48.985Z",
  "networkType": "ethereum",
  "devdoc": {
    "kind": "dev",
    "methods": {
      "owner()": {
        "details": "Returns the address of the current owner."
      },
      "renounceOwnership()": {
        "details": "Leaves the contract without owner. It will not be possible to call `onlyOwner` functions anymore. Can only be called by the current owner. NOTE: Renouncing ownership will leave the contract without an owner, thereby removing any functionality that is only available to the owner."
      },
      "transferOwnership(address)": {
        "details": "Transfers ownership of the contract to a new account (`newOwner`). Can only be called by the current owner."
      }
    },
    "version": 1
  },
  "userdoc": {
    "kind": "user",
    "methods": {},
    "version": 1
  }
}