{
  "contractName": "VotersManagement",
  "abi": [
    {
      "anonymous": false,
      "inputs": [
        {
          "indexed": false,
          "internalType": "uint256",
          "name": "Total",
          "type": "uint256"
        }
      ],
      "name": "EventAvailableBalance",
      "type": "event"
    },
    {
      "anonymous": false,
      "inputs": [
        {
          "indexed": true,
          "internalType": "address",
          "name": "previousOwner",
          "type": "address"
        },
        {
          "indexed": true,
          "internalType": "address",
          "name": "newOwner",
          "type": "address"
        }
      ],
      "name": "OwnershipTransferred",
      "type": "event"
    },
    {
      "anonymous": false,
      "inputs": [
        {
          "indexed": false,
          "internalType": "string",
          "name": "_name",
          "type": "string"
        },
        {
          "indexed": false,
          "internalType": "uint256",
          "name": "_v_no",
          "type": "uint256"
        },
        {
          "indexed": false,
          "internalType": "bool",
          "name": "_is_voted",
          "type": "bool"
        },
        {
          "indexed": false,
          "internalType": "string",
          "name": "_r_date",
          "type": "string"
        },
        {
          "indexed": false,
          "internalType": "uint256",
          "name": "_c_num",
          "type": "uint256"
        }
      ],
      "name": "VoterUpdate",
      "type": "event"
    },
    {
      "inputs": [],
      "name": "owner",
      "outputs": [
        {
          "internalType": "address",
          "name": "",
          "type": "address"
        }
      ],
      "stateMutability": "view",
      "type": "function"
    },
    {
      "inputs": [],
      "name": "renounceOwnership",
      "outputs": [],
      "stateMutability": "nonpayable",
      "type": "function"
    },
    {
      "inputs": [
        {
          "internalType": "address",
          "name": "newOwner",
          "type": "address"
        }
      ],
      "name": "transferOwnership",
      "outputs": [],
      "stateMutability": "nonpayable",
      "type": "function"
    },
    {
      "stateMutability": "payable",
      "type": "receive"
    },
    {
      "inputs": [
        {
          "internalType": "string",
          "name": "_name",
          "type": "string"
        },
        {
          "internalType": "string",
          "name": "_r_date",
          "type": "string"
        },
        {
          "internalType": "uint256",
          "name": "_c_num",
          "type": "uint256"
        },
        {
          "internalType": "uint256",
          "name": "_token",
          "type": "uint256"
        }
      ],
      "name": "addVoter",
      "outputs": [],
      "stateMutability": "nonpayable",
      "type": "function"
    },
    {
      "inputs": [],
      "name": "checkAvailabelBalance",
      "outputs": [],
      "stateMutability": "nonpayable",
      "type": "function"
    },
    {
      "inputs": [
        {
          "internalType": "address payable",
          "name": "_to",
          "type": "address"
        }
      ],
      "name": "destroySmartContract",
      "outputs": [],
      "stateMutability": "nonpayable",
      "type": "function"
    }
  ],
  "bytecode": "0x60806040526001805534801561001457600080fd5b5061003161002661003660201b60201c565b61003e60201b60201c565b610102565b600033905090565b60008060009054906101000a900473ffffffffffffffffffffffffffffffffffffffff169050816000806101000a81548173ffffffffffffffffffffffffffffffffffffffff021916908373ffffffffffffffffffffffffffffffffffffffff1602179055508173ffffffffffffffffffffffffffffffffffffffff168173ffffffffffffffffffffffffffffffffffffffff167f8be0079c531659141344cd1fd0a4f28419497f9722a3daafe3b4186f6b6457e060405160405180910390a35050565b61102c806101116000396000f3fe6080604052600436106100595760003560e01c80631666794b1461006557806334c2dbe01461008e57806339df43ff146100a5578063715018a6146100ce5780638da5cb5b146100e5578063f2fde38b1461011057610060565b3661006057005b600080fd5b34801561007157600080fd5b5061008c60048036038101906100879190610792565b610139565b005b34801561009a57600080fd5b506100a3610396565b005b3480156100b157600080fd5b506100cc60048036038101906100c7919061088f565b6103d7565b005b3480156100da57600080fd5b506100e36103f8565b005b3480156100f157600080fd5b506100fa61040c565b60405161010791906108dd565b60405180910390f35b34801561011c57600080fd5b5061013760048036038101906101329190610924565b610435565b005b6101416104b8565b60006002600083815260200190815260200160002060030154111561019b576040517f08c379a0000000000000000000000000000000000000000000000000000000008152600401610192906109ae565b60405180910390fd5b6000600260008381526020019081526020016000206005015411156101f5576040517f08c379a00000000000000000000000000000000000000000000000000000000081526004016101ec90610a40565b60405180910390fd5b836002600083815260200190815260200160002060000190816102189190610c77565b50600154600260008381526020019081526020016000206001018190555060006002600083815260200190815260200160002060020160006101000a81548160ff021916908315150217905550806002600083815260200190815260200160002060030181905550826002600083815260200190815260200160002060040190816102a39190610c77565b5081600260008381526020019081526020016000206005018190555060018060008282546102d19190610d78565b925050819055507f9be1be5db3c313780716bbfa451ca1937258a5c2d821bc8b8bd3920d85c3d0766002600083815260200190815260200160002060000160026000848152602001908152602001600020600101546002600085815260200190815260200160002060020160009054906101000a900460ff16600260008681526020019081526020016000206004016002600087815260200190815260200160002060050154604051610388959493929190610e7c565b60405180910390a150505050565b61039e6104b8565b7f8b4f1ec7ae7b3bee79d9c74b6b6674b17f382a4adacf502db0833b3424305bcf476040516103cd9190610edd565b60405180910390a1565b6103df6104b8565b8073ffffffffffffffffffffffffffffffffffffffff16ff5b6104006104b8565b61040a6000610536565b565b60008060009054906101000a900473ffffffffffffffffffffffffffffffffffffffff16905090565b61043d6104b8565b600073ffffffffffffffffffffffffffffffffffffffff168173ffffffffffffffffffffffffffffffffffffffff16036104ac576040517f08c379a00000000000000000000000000000000000000000000000000000000081526004016104a390610f6a565b60405180910390fd5b6104b581610536565b50565b6104c06105fa565b73ffffffffffffffffffffffffffffffffffffffff166104de61040c565b73ffffffffffffffffffffffffffffffffffffffff1614610534576040517f08c379a000000000000000000000000000000000000000000000000000000000815260040161052b90610fd6565b60405180910390fd5b565b60008060009054906101000a900473ffffffffffffffffffffffffffffffffffffffff169050816000806101000a81548173ffffffffffffffffffffffffffffffffffffffff021916908373ffffffffffffffffffffffffffffffffffffffff1602179055508173ffffffffffffffffffffffffffffffffffffffff168173ffffffffffffffffffffffffffffffffffffffff167f8be0079c531659141344cd1fd0a4f28419497f9722a3daafe3b4186f6b6457e060405160405180910390a35050565b600033905090565b6000604051905090565b600080fd5b600080fd5b600080fd5b600080fd5b6000601f19601f8301169050919050565b7f4e487b7100000000000000000000000000000000000000000000000000000000600052604160045260246000fd5b61066982610620565b810181811067ffffffffffffffff8211171561068857610687610631565b5b80604052505050565b600061069b610602565b90506106a78282610660565b919050565b600067ffffffffffffffff8211156106c7576106c6610631565b5b6106d082610620565b9050602081019050919050565b82818337600083830152505050565b60006106ff6106fa846106ac565b610691565b90508281526020810184848401111561071b5761071a61061b565b5b6107268482856106dd565b509392505050565b600082601f83011261074357610742610616565b5b81356107538482602086016106ec565b91505092915050565b6000819050919050565b61076f8161075c565b811461077a57600080fd5b50565b60008135905061078c81610766565b92915050565b600080600080608085870312156107ac576107ab61060c565b5b600085013567ffffffffffffffff8111156107ca576107c9610611565b5b6107d68782880161072e565b945050602085013567ffffffffffffffff8111156107f7576107f6610611565b5b6108038782880161072e565b93505060406108148782880161077d565b92505060606108258782880161077d565b91505092959194509250565b600073ffffffffffffffffffffffffffffffffffffffff82169050919050565b600061085c82610831565b9050919050565b61086c81610851565b811461087757600080fd5b50565b60008135905061088981610863565b92915050565b6000602082840312156108a5576108a461060c565b5b60006108b38482850161087a565b91505092915050565b60006108c782610831565b9050919050565b6108d7816108bc565b82525050565b60006020820190506108f260008301846108ce565b92915050565b610901816108bc565b811461090c57600080fd5b50565b60008135905061091e816108f8565b92915050565b60006020828403121561093a5761093961060c565b5b60006109488482850161090f565b91505092915050565b600082825260208201905092915050565b7f766f74657220746f6b656e20616c726561647920657869737400000000000000600082015250565b6000610998601983610951565b91506109a382610962565b602082019050919050565b600060208201905081810360008301526109c78161098b565b9050919050565b7f766f746572207769746820746869732063617264206e756d62657220616c726560008201527f6164792065786973740000000000000000000000000000000000000000000000602082015250565b6000610a2a602983610951565b9150610a35826109ce565b604082019050919050565b60006020820190508181036000830152610a5981610a1d565b9050919050565b600081519050919050565b7f4e487b7100000000000000000000000000000000000000000000000000000000600052602260045260246000fd5b60006002820490506001821680610ab257607f821691505b602082108103610ac557610ac4610a6b565b5b50919050565b60008190508160005260206000209050919050565b60006020601f8301049050919050565b600082821b905092915050565b600060088302610b2d7fffffffffffffffffffffffffffffffffffffffffffffffffffffffffffffffff82610af0565b610b378683610af0565b95508019841693508086168417925050509392505050565b6000819050919050565b6000610b74610b6f610b6a8461075c565b610b4f565b61075c565b9050919050565b6000819050919050565b610b8e83610b59565b610ba2610b9a82610b7b565b848454610afd565b825550505050565b600090565b610bb7610baa565b610bc2818484610b85565b505050565b5b81811015610be657610bdb600082610baf565b600181019050610bc8565b5050565b601f821115610c2b57610bfc81610acb565b610c0584610ae0565b81016020851015610c14578190505b610c28610c2085610ae0565b830182610bc7565b50505b505050565b600082821c905092915050565b6000610c4e60001984600802610c30565b1980831691505092915050565b6000610c678383610c3d565b9150826002028217905092915050565b610c8082610a60565b67ffffffffffffffff811115610c9957610c98610631565b5b610ca38254610a9a565b610cae828285610bea565b600060209050601f831160018114610ce15760008415610ccf578287015190505b610cd98582610c5b565b865550610d41565b601f198416610cef86610acb565b60005b82811015610d1757848901518255600182019150602085019450602081019050610cf2565b86831015610d345784890151610d30601f891682610c3d565b8355505b6001600288020188555050505b505050505050565b7f4e487b7100000000000000000000000000000000000000000000000000000000600052601160045260246000fd5b6000610d838261075c565b9150610d8e8361075c565b9250827fffffffffffffffffffffffffffffffffffffffffffffffffffffffffffffffff03821115610dc357610dc2610d49565b5b828201905092915050565b60008154610ddb81610a9a565b610de58186610951565b94506001821660008114610e005760018114610e1657610e49565b60ff198316865281151560200286019350610e49565b610e1f85610acb565b60005b83811015610e4157815481890152600182019150602081019050610e22565b808801955050505b50505092915050565b610e5b8161075c565b82525050565b60008115159050919050565b610e7681610e61565b82525050565b600060a0820190508181036000830152610e968188610dce565b9050610ea56020830187610e52565b610eb26040830186610e6d565b8181036060830152610ec48185610dce565b9050610ed36080830184610e52565b9695505050505050565b6000602082019050610ef26000830184610e52565b92915050565b7f4f776e61626c653a206e6577206f776e657220697320746865207a65726f206160008201527f6464726573730000000000000000000000000000000000000000000000000000602082015250565b6000610f54602683610951565b9150610f5f82610ef8565b604082019050919050565b60006020820190508181036000830152610f8381610f47565b9050919050565b7f4f776e61626c653a2063616c6c6572206973206e6f7420746865206f776e6572600082015250565b6000610fc0602083610951565b9150610fcb82610f8a565b602082019050919050565b60006020820190508181036000830152610fef81610fb3565b905091905056fea2646970667358221220e76f521bf947f7b4d6da8b65a686c9775543f4b70ad77d1f2eb88ea3ae10d35a64736f6c634300080f0033",
  "immutableReferences": {},
  "source": "pragma solidity ^0.8.15;\nimport \"./Ownable.sol\";\n\ncontract VotersManagement is Ownable{\n    uint votercounter=1;\n    event VoterUpdate (string _name,uint _v_no,bool _is_voted,string _r_date,uint _c_num);\n        struct voter{\n        string v_name;\n        uint v_no;\n        bool is_voted;\n        uint token;\n        string reg_date;\n        uint card_num;\n    }\n    mapping(uint => voter)  voters; \n\n    function addVoter(string memory _name,string memory _r_date,uint _c_num, uint _token) public onlyOwner{\n        require((voters[_token].token) <= 0,\"voter token already exist\");\n        require((voters[_token].card_num) <= 0,\"voter with this card number already exist\");\n        voters[_token].v_name = _name;\n        voters[_token].v_no = votercounter;\n        voters[_token].is_voted = false;\n        voters[_token].token = _token;\n        voters[_token].reg_date = _r_date;\n        voters[_token].card_num = _c_num;\n        votercounter+=1;\n        emit VoterUpdate(voters[_token].v_name,voters[_token].v_no,voters[_token].is_voted,voters[_token].reg_date,voters[_token].card_num);\n    }\n\n    receive () external payable {         \n    }\n    event EventAvailableBalance(uint Total);\n    function checkAvailabelBalance() public onlyOwner {\n        emit EventAvailableBalance(address(this).balance);\n    }\n\n    function destroySmartContract(address payable _to) public onlyOwner{\n        selfdestruct(_to);\n        \n    } \n\n}\n\n\n\ncontract ElectionManagement is VotersManagement{\n\n    event EventCreateCandidate(string election_name,string party_name,string candidate_name,string candidate_post,uint candidate_number);\n    event EventCreateparty(string election_name,string party_name,uint party_id);\n    event EventCreateElection(string election_name,uint election_id);\n    event EventVoted(string election_name,bool vote_status);\n\nuint c_count=0;\n    struct candidate{\n        string c_name;\n        string c_post;\n        uint c_id;\n        uint c_votes;\n    }\n\nuint p_count=0;\n    struct party{\n        string p_name;\n        uint p_votes;\n        uint p_id;\n        uint candidatecount;\n        mapping(uint => candidate) candidates;\n    }\n\nuint e_count=0;\n    struct election{\n        string e_name;\n        uint t_votes;\n        bool isRunning;\n        uint e_id;\n        uint p_Count;\n        mapping(uint => party) parties;\n\n    }\n\nmapping (uint => election) elections;\n\n        function checkElectionExist(string memory _name) private view returns(bool){\n        for(uint i=0;i<=e_count;i++){\n            if(keccak256(abi.encodePacked((elections[i].e_name))) == keccak256(abi.encodePacked((_name)))){\n                return true;\n            }\n        }\n        return false;\n    }\n\n    function registerElection(string memory _e_name) public onlyOwner{\n        require(!checkElectionExist(_e_name),\"election name already exist\");\n        elections[e_count].e_name = _e_name;\n        elections[e_count].isRunning = false;\n        elections[e_count].t_votes = 0;\n        elections[e_count].e_id = e_count;\n        elections[e_count].p_Count = 0;\n        emit EventCreateElection(_e_name,e_count);\n        e_count += 1;\n    }\n\n    function indexOfElection(string memory _name) private view returns(uint){\n        for(uint i=0;i<=e_count;i++){\n            if(keccak256(abi.encodePacked((elections[i].e_name))) == keccak256(abi.encodePacked((_name)))){\n                return i;\n            }\n        }\n        revert('election name not found');\n    }\n\n    function checkPartyExist(uint pindex,string memory p_name) private view returns(bool){\n        for(uint i=0;i<=elections[pindex].p_Count;i++){\n            if(keccak256(abi.encodePacked((elections[pindex].parties[i].p_name))) == keccak256(abi.encodePacked((p_name)))){\n                return true;\n            }\n        }\n        return false;\n    }\n\n    function indexOfParty(uint eindex,string memory p_name) private view returns(uint){\n        for(uint i=0;i<=elections[eindex].p_Count;i++){\n            if(keccak256(abi.encodePacked((elections[eindex].parties[i].p_name))) == keccak256(abi.encodePacked((p_name)))){\n                return i;\n            }\n        }\n        revert('party name not found');\n    }\n\n\n    function registerParty(string memory e_name,string memory p_name) public onlyOwner{\n        uint index = indexOfElection(e_name);\n        require(!checkPartyExist(index,p_name),\"party name already exist\");\n        elections[index].parties[elections[index].p_Count].p_name = p_name;\n        elections[index].parties[elections[index].p_Count].candidatecount = 0;\n        elections[index].parties[elections[index].p_Count].p_votes = 0;\n        elections[index].parties[elections[index].p_Count].p_id = p_count;\n        emit EventCreateparty(e_name,p_name,p_count);\n        elections[index].p_Count += 1;\n        p_count += 1;\n    }\n\n    function checkCandidateExist(uint eindex,uint pindex,string memory _c_post) private view returns(bool){\n        for(uint i=0;i<=elections[eindex].parties[pindex].candidatecount;i++){\n            if(keccak256(abi.encodePacked((elections[eindex].parties[pindex].candidates[i].c_post))) == keccak256(abi.encodePacked((_c_post)))){\n                return true;\n            }\n        }\n        return false;\n    }\n\n    function indexOfCandidate(uint eindex,uint pindex,string memory _c_post) private view returns(uint){\n        for(uint i=0;i<=elections[eindex].parties[pindex].candidatecount;i++){\n            if(keccak256(abi.encodePacked((elections[eindex].parties[pindex].candidates[i].c_post))) == keccak256(abi.encodePacked((_c_post)))){\n                return i;\n            }\n        }\n        revert('candidate post not found');\n    }\n\n    function registerCandidate(string memory e_name,string memory p_name,string memory _c_name,string memory _c_post)public onlyOwner{\n        uint eindex = indexOfElection(e_name);\n        uint pindex = indexOfParty(eindex,p_name);\n        require(!checkCandidateExist(eindex,pindex,_c_post),\"candidate post in that party name already exist\");\n        elections[eindex].parties[pindex].candidates[elections[eindex].parties[pindex].candidatecount].c_name = _c_name;\n        elections[eindex].parties[pindex].candidates[elections[eindex].parties[pindex].candidatecount].c_post = _c_post;\n        elections[eindex].parties[pindex].candidates[elections[eindex].parties[pindex].candidatecount].c_votes = 0;\n        elections[eindex].parties[pindex].candidates[elections[eindex].parties[pindex].candidatecount].c_id = c_count;\n        elections[eindex].parties[pindex].candidatecount += 1;\n        emit EventCreateCandidate(e_name,p_name,_c_name,_c_post,c_count);\n        c_count += 1;\n\n    }\n\n    // function checkcandidateIndex(string memory e_name,string memory p_name,string memory _c_post) public view returns(uint){\n    //     uint eindex = indexOfElection(e_name);\n    //     return indexOfCandidate(eindex,indexOfParty(eindex,p_name),_c_post);\n    // }\n// president,vice-president,secretary,treasurer,member\n// uint p_pid,uint p_cid,uint vp_pid,uint vp_cid,uint s_pid,uint s_cid,uint t_pid,uint t_cid,uint m_pid,uint m_cid\n    // function vote(string memory _e_name,uint p_pid,uint p_cid,uint vp_pid,uint vp_cid,uint s_pid,uint s_cid,uint t_pid,uint t_cid,uint m_pid,uint m_cid, uint _token) public onlyOwner{ \n        function vote(string memory _e_name,uint[] memory pid,uint[] memory cid,uint _token) public{\n        require(voters[_token].token > 0,\"voter not exist\");\n        require(!(voters[_token].is_voted),\"voter already voted\");\n        uint eindex = indexOfElection(_e_name);\n        // for president\n        elections[eindex].parties[pid[0]].candidates[cid[0]].c_votes += 1;\n        elections[eindex].parties[pid[0]].p_votes +=1;\n        // for vice president\n        elections[eindex].parties[pid[1]].candidates[cid[1]].c_votes += 1;\n        elections[eindex].parties[pid[1]].p_votes +=1;\n        // for secretary\n        elections[eindex].parties[pid[2]].candidates[cid[2]].c_votes += 1;\n        elections[eindex].parties[pid[2]].p_votes +=1;\n        // for treasurer\n        elections[eindex].parties[pid[3]].candidates[cid[3]].c_votes += 1;\n        elections[eindex].parties[pid[3]].p_votes +=1;\n        // for member\n        elections[eindex].parties[pid[4]].candidates[cid[4]].c_votes += 1;\n        elections[eindex].parties[pid[4]].p_votes +=1;\n\n        elections[eindex].t_votes += 5;\n        voters[_token].is_voted = true;\n        emit EventVoted(_e_name,true);\n\n    }\n\n     function uint2str(uint256 _i) internal pure returns (string memory str)\n{\n    if (_i == 0){\n    return \"0\";\n  }\n  uint256 j = _i;\n  uint256 length;\n  while (j != 0)\n  {\n    length++;\n    j /= 10;\n  }\n  bytes memory bstr = new bytes(length);\n  uint256 k = length;\n  j = _i;\n  while (j != 0)\n  {\n    bstr[--k] = bytes1(uint8(48 + j % 10));\n    j /= 10;\n  }\n  str = string(bstr);\n}\n\n    function getVotes(string memory _e_name)public onlyOwner returns(string memory) {\n        uint eindex = indexOfElection(_e_name);\n        // uint pindex = indexOfParty(eindex,_p_name);\n        string memory lvotes;\n        // c_count=elections[eindex].parties[pindex].candidatecount;\n        lvotes = '[';\n        for (uint j=0;j<elections[eindex].p_Count;j++){\n            lvotes = string(abi.encodePacked(lvotes,\"{name:\",\"'\",elections[eindex].parties[j].p_name,\"'\",\",votes:\",uint2str(elections[eindex].parties[j].p_votes),\",partyId:\",uint2str(elections[eindex].parties[j].p_id),\",returnValues:[\"));\n        for(uint i=0;i<elections[eindex].parties[j].candidatecount;i++){\n            lvotes=string(abi.encodePacked(lvotes,\"{\",\"name:\",\"'\",elections[eindex].parties[j].candidates[i].c_name,\"'\",\",post:\",\"'\",elections[eindex].parties[j].candidates[i].c_post,\"'\",\",c_id:\",uint2str(elections[eindex].parties[j].candidates[i].c_id),\",votes:\",uint2str(elections[eindex].parties[j].candidates[i].c_votes),\"},\"));\n        }\n        lvotes = string(abi.encodePacked(lvotes,\"]},\"));\n        }\n        lvotes = string(abi.encodePacked(lvotes,\"]\"));\n    //     return lvotes;\n    // }\n\n    return lvotes;\n    }\n}",
  "sourcePath": "/home/anish/Documents/experiments/react/DecentralizedVotingSystem/web3frontend/truffle/contracts/ElectionManagement.sol",
  "compiler": {
    "name": "solc",
    "version": "0.8.15+commit.e14f2714.Emscripten.clang"
  },
  "schemaVersion": "3.4.10",
  "updatedAt": "2022-10-19T16:46:24.807Z",
  "devdoc": {
    "kind": "dev",
    "methods": {
      "owner()": {
        "details": "Returns the address of the current owner."
      },
      "renounceOwnership()": {
        "details": "Leaves the contract without owner. It will not be possible to call `onlyOwner` functions anymore. Can only be called by the current owner. NOTE: Renouncing ownership will leave the contract without an owner, thereby removing any functionality that is only available to the owner."
      },
      "transferOwnership(address)": {
        "details": "Transfers ownership of the contract to a new account (`newOwner`). Can only be called by the current owner."
      }
    },
    "version": 1
  },
  "userdoc": {
    "kind": "user",
    "methods": {},
    "version": 1
  }
}